{
  "contractName": "BlockVerify",
  "abi": [
    {
      "constant": false,
      "inputs": [
        {
          "name": "item",
          "type": "string"
        }
      ],
      "name": "addItem",
      "outputs": [],
      "payable": false,
      "stateMutability": "nonpayable",
      "type": "function",
      "signature": "0x27e9f294"
    },
    {
      "constant": true,
      "inputs": [],
      "name": "getItems",
      "outputs": [
        {
          "name": "",
          "type": "string[]"
        }
      ],
      "payable": false,
      "stateMutability": "view",
      "type": "function",
      "signature": "0x410d59cc"
    }
  ],
  "bytecode": "0x608060405234801561001057600080fd5b50610472806100206000396000f3fe60806040526004361061004b5763ffffffff7c010000000000000000000000000000000000000000000000000000000060003504166327e9f2948114610050578063410d59cc14610072575b600080fd5b34801561005c57600080fd5b5061007061006b3660046102a8565b61009d565b005b34801561007e57600080fd5b506100876100e3565b6040516100949190610381565b60405180910390f35b600080546001810180835591805282516100de917f290decd9548b62a8d60345a988386fc84ba6bc95484008f6362f93160ef3e563019060208501906101bc565b505050565b60606000805480602002602001604051908101604052809291908181526020016000905b828210156101b25760008481526020908190208301805460408051601f600260001961010060018716150201909416939093049283018590048502810185019091528181529283018282801561019e5780601f106101735761010080835404028352916020019161019e565b820191906000526020600020905b81548152906001019060200180831161018157829003601f168201915b505050505081526020019060010190610107565b5050505090505b90565b828054600181600116156101000203166002900490600052602060002090601f016020900481019282601f106101fd57805160ff191683800117855561022a565b8280016001018555821561022a579182015b8281111561022a57825182559160200191906001019061020f565b5061023692915061023a565b5090565b6101b991905b808211156102365760008155600101610240565b6000601f8201831361026557600080fd5b8135610278610273826103c0565b610399565b9150808252602083016020830185838301111561029457600080fd5b61029f8382846103f2565b50505092915050565b6000602082840312156102ba57600080fd5b813567ffffffffffffffff8111156102d157600080fd5b6102dd84828501610254565b949350505050565b60006102f0826103ee565b80845260208401935083602082028501610309856103e8565b60005b8481101561034057838303885261032483835161034c565b925061032f826103e8565b60209890980197915060010161030c565b50909695505050505050565b6000610357826103ee565b80845261036b8160208601602086016103fe565b6103748161042e565b9093016020019392505050565b6020808252810161039281846102e5565b9392505050565b60405181810167ffffffffffffffff811182821017156103b857600080fd5b604052919050565b600067ffffffffffffffff8211156103d757600080fd5b506020601f91909101601f19160190565b60200190565b5190565b82818337506000910152565b60005b83811015610419578181015183820152602001610401565b83811115610428576000848401525b50505050565b601f01601f19169056fea265627a7a72305820b09326fbeb67fed26c1ad7d967e9a4d0f112ea850d1e8b47650b795f94bb20516c6578706572696d656e74616cf50037",
  "source": "// SPDX-License-Identifier: MIT\npragma solidity >=0.4.22 <0.9.0;\npragma experimental ABIEncoderV2;\n\ncontract BlockVerify {\n    string[] items;\n\n    function addItem(string memory item) public {\n        items.push(item);\n    }\n\n    function getItems() public view returns (string[] memory) {\n        return items;\n    }\n}",
  "sourcePath": "/Users/sandaru/DATA DRIVE/Degree/L6/FYP/Project/block-verify/client/src/truffle/contracts/BlockVerify.sol",
  "compiler": {
    "name": "solc",
    "version": "0.5.0+commit.1d4f565a.Emscripten.clang"
  },
  "schemaVersion": "3.0.1",
  "updatedAt": "2023-04-14T17:01:50.766Z",
  "devdoc": {
    "methods": {}
  },
  "userdoc": {
    "methods": {}
  }
}