{
  "contractName": "Transactions",
  "abi": [
    {
      "constant": true,
      "inputs": [],
      "name": "numTransactions",
      "outputs": [
        {
          "name": "",
          "type": "uint256"
        }
      ],
      "payable": false,
      "stateMutability": "view",
      "type": "function"
    },
    {
      "constant": true,
      "inputs": [
        {
          "name": "",
          "type": "uint256"
        }
      ],
      "name": "transactions",
      "outputs": [
        {
          "name": "txHash",
          "type": "string"
        },
        {
          "name": "txType",
          "type": "string"
        },
        {
          "name": "accountAdress",
          "type": "string"
        }
      ],
      "payable": false,
      "stateMutability": "view",
      "type": "function"
    },
    {
      "constant": false,
      "inputs": [
        {
          "name": "_txHash",
          "type": "string"
        },
        {
          "name": "_txtype",
          "type": "string"
        },
        {
          "name": "_account",
          "type": "string"
        }
      ],
      "name": "addTransaction",
      "outputs": [],
      "payable": false,
      "stateMutability": "nonpayable",
      "type": "function"
    },
    {
      "constant": false,
      "inputs": [],
      "name": "getTransactionsCount",
      "outputs": [
        {
          "name": "",
          "type": "uint256"
        }
      ],
      "payable": false,
      "stateMutability": "nonpayable",
      "type": "function"
    },
    {
      "constant": false,
      "inputs": [
        {
          "name": "index",
          "type": "uint256"
        }
      ],
      "name": "getTransactions",
      "outputs": [
        {
          "name": "",
          "type": "string[]"
        },
        {
          "name": "",
          "type": "string[]"
        },
        {
          "name": "",
          "type": "string[]"
        }
      ],
      "payable": true,
      "stateMutability": "payable",
      "type": "function"
    }
  ],
  "bytecode": "0x608060405234801561001057600080fd5b506109d9806100206000396000f3fe60806040526004361061006c5763ffffffff7c01000000000000000000000000000000000000000000000000000000006000350416635742177c8114610071578063578cb8f91461009c57806390b4cc72146100be5780639ace38c2146100d3578063f61921df14610102575b600080fd5b61008461007f3660046107a0565b610124565b60405161009393929190610871565b60405180910390f35b3480156100a857600080fd5b506100b161038c565b60405161009391906108ec565b3480156100ca57600080fd5b506100b1610393565b3480156100df57600080fd5b506100f36100ee3660046107a0565b610399565b604051610093939291906108b3565b34801561010e57600080fd5b5061012261011d36600461070c565b610567565b005b6060808080808060005b60015481101561037e576101406105eb565b600089815260208181526040918290208251815460026001821615610100026000190190911604601f810184900490930281016080908101909452606081018381529093919284928491908401828280156101dc5780601f106101b1576101008083540402835291602001916101dc565b820191906000526020600020905b8154815290600101906020018083116101bf57829003601f168201915b50505050508152602001600182018054600181600116156101000203166002900480601f01602080910402602001604051908101604052809291908181526020018280546001816001161561010002031660029004801561027e5780601f106102535761010080835404028352916020019161027e565b820191906000526020600020905b81548152906001019060200180831161026157829003601f168201915b5050509183525050600282810180546040805160206001841615610100026000190190931694909404601f810183900483028501830190915280845293810193908301828280156103105780601f106102e557610100808354040283529160200191610310565b820191906000526020600020905b8154815290600101906020018083116102f357829003601f168201915b50505050508152505090508060000151858381518110151561032e57fe5b906020019060200201819052508060200151848381518110151561034e57fe5b602090810290910101526040810151835184908490811061036b57fe5b602090810290910101525060010161012e565b509196909550909350915050565b6001545b90565b60015481565b6000602081815291815260409081902080548251601f60026000196101006001861615020190931692909204918201859004850281018501909352808352909283919083018282801561042d5780601f106104025761010080835404028352916020019161042d565b820191906000526020600020905b81548152906001019060200180831161041057829003601f168201915b505050505090806001018054600181600116156101000203166002900480601f0160208091040260200160405190810160405280929190818152602001828054600181600116156101000203166002900480156104cb5780601f106104a0576101008083540402835291602001916104cb565b820191906000526020600020905b8154815290600101906020018083116104ae57829003601f168201915b50505060028085018054604080516020601f600019610100600187161502019094169590950492830185900485028101850190915281815295969594509092509083018282801561055d5780601f106105325761010080835404028352916020019161055d565b820191906000526020600020905b81548152906001019060200180831161054057829003601f168201915b5050505050905083565b60408051606081018252848152602080820185905281830184905260015460009081528082529290922081518051929391926105a6928492019061060d565b5060208281015180516105bf926001850192019061060d565b50604082015180516105db91600284019160209091019061060d565b5050600180548101905550505050565b6060604051908101604052806060815260200160608152602001606081525090565b828054600181600116156101000203166002900490600052602060002090601f016020900481019282601f1061064e57805160ff191683800117855561067b565b8280016001018555821561067b579182015b8281111561067b578251825591602001919060010190610660565b5061068792915061068b565b5090565b61039091905b808211156106875760008155600101610691565b6000601f820183136106b657600080fd5b81356106c96106c482610927565b610900565b915080825260208301602083018583830111156106e557600080fd5b6106f0838284610959565b50505092915050565b60006107058235610390565b9392505050565b60008060006060848603121561072157600080fd5b833567ffffffffffffffff81111561073857600080fd5b610744868287016106a5565b935050602084013567ffffffffffffffff81111561076157600080fd5b61076d868287016106a5565b925050604084013567ffffffffffffffff81111561078a57600080fd5b610796868287016106a5565b9150509250925092565b6000602082840312156107b257600080fd5b60006107be84846106f9565b949350505050565b60006107d182610955565b808452602084019350836020820285016107ea8561094f565b60005b8481101561082157838303885261080583835161082d565b92506108108261094f565b6020989098019791506001016107ed565b50909695505050505050565b600061083882610955565b80845261084c816020860160208601610965565b61085581610995565b9093016020019392505050565b61086b81610390565b82525050565b6060808252810161088281866107c6565b9050818103602083015261089681856107c6565b905081810360408301526108aa81846107c6565b95945050505050565b606080825281016108c4818661082d565b905081810360208301526108d8818561082d565b905081810360408301526108aa818461082d565b602081016108fa8284610862565b92915050565b60405181810167ffffffffffffffff8111828210171561091f57600080fd5b604052919050565b600067ffffffffffffffff82111561093e57600080fd5b506020601f91909101601f19160190565b60200190565b5190565b82818337506000910152565b60005b83811015610980578181015183820152602001610968565b8381111561098f576000848401525b50505050565b601f01601f19169056fea265627a7a72305820116b4c09315ab795dcb4a5bd776bd02105992e84dc90e84194b6eed0a0c90fc26c6578706572696d656e74616cf50037",
  "source": "// SPDX-License-Identifier: MIT\npragma solidity >=0.4.22 <0.9.0;\npragma experimental ABIEncoderV2;\n\ncontract Transactions{\n    mapping(uint => transaction)public  transactions;\n    uint public numTransactions;\n\n    struct transaction{\n        string txHash;\n        string txType; // add or delete\n        string accountAdress;\n\n    }\n    function addTransaction(string memory _txHash,string memory _txtype,string memory _account) public {\n        \n        transactions[numTransactions]=transaction(_txHash,_txtype,_account);\n        numTransactions++;\n\n    }\n    function getTransactionsCount() public returns(uint){ return numTransactions;}\n    function getTransactions(uint index) \n    payable \n    public\n     returns(\n         string[] memory,\n         string[] memory,\n         string[] memory\n          )\n         { \nstring[] memory Hashes;\nstring[] memory Types;\nstring[] memory Accounts;\n\nfor(uint i=0;i<numTransactions;i++) {\n    transaction memory obj =transactions[index];\n    Hashes[i]=obj.txHash;\n    Types[i]=obj.txType;\n    Accounts[i]= obj.accountAdress;\n\n}\nreturn (Hashes,Types,Accounts);\n\n\n    }\n}",
  "sourcePath": "/Users/sandaru/DATA DRIVE/Degree/L6/FYP/Project/block-verify/client/src/truffle/contracts/Transactions.sol",
  "compiler": {
    "name": "solc",
    "version": "0.5.0+commit.1d4f565a.Emscripten.clang"
  },
  "schemaVersion": "3.0.1",
  "updatedAt": "2023-04-14T17:01:17.114Z",
  "devdoc": {
    "methods": {}
  },
  "userdoc": {
    "methods": {}
  }
}